{
  "contractName": "GetFile",
  "abi": [
    {
      "anonymous": false,
      "inputs": [
        {
          "indexed": true,
          "internalType": "address",
          "name": "previousOwner",
          "type": "address"
        },
        {
          "indexed": true,
          "internalType": "address",
          "name": "newOwner",
          "type": "address"
        }
      ],
      "name": "OwnershipTransferred",
      "type": "event"
    },
    {
      "anonymous": false,
      "inputs": [
        {
          "indexed": false,
          "internalType": "string",
          "name": "name",
          "type": "string"
        },
        {
          "indexed": false,
          "internalType": "string",
          "name": "fileHash",
          "type": "string"
        },
        {
          "indexed": true,
          "internalType": "address",
          "name": "owner",
          "type": "address"
        },
        {
          "indexed": false,
          "internalType": "uint256",
          "name": "storeDate",
          "type": "uint256"
        }
      ],
      "name": "StoreFileEvent",
      "type": "event"
    },
    {
      "inputs": [
        {
          "internalType": "string",
          "name": "_name",
          "type": "string"
        },
        {
          "internalType": "string",
          "name": "_fileHash",
          "type": "string"
        },
        {
          "internalType": "address",
          "name": "_owner",
          "type": "address"
        }
      ],
      "name": "Store",
      "outputs": [],
      "stateMutability": "nonpayable",
      "type": "function"
    },
    {
      "inputs": [
        {
          "internalType": "uint256",
          "name": "",
          "type": "uint256"
        }
      ],
      "name": "files",
      "outputs": [
        {
          "internalType": "string",
          "name": "name",
          "type": "string"
        },
        {
          "internalType": "string",
          "name": "fileHash",
          "type": "string"
        },
        {
          "internalType": "address",
          "name": "owner",
          "type": "address"
        },
        {
          "internalType": "uint256",
          "name": "storeDate",
          "type": "uint256"
        }
      ],
      "stateMutability": "view",
      "type": "function"
    },
    {
      "inputs": [],
      "name": "isOwner",
      "outputs": [
        {
          "internalType": "bool",
          "name": "",
          "type": "bool"
        }
      ],
      "stateMutability": "view",
      "type": "function"
    },
    {
      "inputs": [],
      "name": "owner",
      "outputs": [
        {
          "internalType": "address",
          "name": "",
          "type": "address"
        }
      ],
      "stateMutability": "view",
      "type": "function"
    },
    {
      "inputs": [],
      "name": "renounceOwnership",
      "outputs": [],
      "stateMutability": "nonpayable",
      "type": "function"
    },
    {
      "inputs": [
        {
          "internalType": "address",
          "name": "newOwner",
          "type": "address"
        }
      ],
      "name": "transferOwnership",
      "outputs": [],
      "stateMutability": "nonpayable",
      "type": "function"
    },
    {
      "inputs": [
        {
          "internalType": "address",
          "name": "_owner",
          "type": "address"
        }
      ],
      "name": "getFilesByOwner",
      "outputs": [
        {
          "internalType": "uint256[]",
          "name": "",
          "type": "uint256[]"
        }
      ],
      "stateMutability": "view",
      "type": "function"
    },
    {
      "inputs": [
        {
          "internalType": "address",
          "name": "_owner",
          "type": "address"
        },
        {
          "internalType": "uint256[]",
          "name": "fileIds",
          "type": "uint256[]"
        }
      ],
      "name": "getOwnerFileDetails",
      "outputs": [
        {
          "internalType": "string[]",
          "name": "",
          "type": "string[]"
        },
        {
          "internalType": "string[]",
          "name": "",
          "type": "string[]"
        }
      ],
      "stateMutability": "view",
      "type": "function"
    },
    {
      "inputs": [
        {
          "internalType": "string",
          "name": "_fileHash",
          "type": "string"
        }
      ],
      "name": "checkFileExistByHash",
      "outputs": [
        {
          "internalType": "bool",
          "name": "",
          "type": "bool"
        },
        {
          "internalType": "address",
          "name": "",
          "type": "address"
        }
      ],
      "stateMutability": "view",
      "type": "function"
    },
    {
      "inputs": [
        {
          "internalType": "string",
          "name": "_fileHash",
          "type": "string"
        }
      ],
      "name": "getFileIdByHash",
      "outputs": [
        {
          "internalType": "uint256",
          "name": "",
          "type": "uint256"
        },
        {
          "internalType": "bool",
          "name": "",
          "type": "bool"
        }
      ],
      "stateMutability": "view",
      "type": "function"
    }
  ],
  "bytecode": "0x608060405234801561001057600080fd5b50336000806101000a81548173ffffffffffffffffffffffffffffffffffffffff021916908373ffffffffffffffffffffffffffffffffffffffff16021790555060008054906101000a900473ffffffffffffffffffffffffffffffffffffffff1673ffffffffffffffffffffffffffffffffffffffff16600073ffffffffffffffffffffffffffffffffffffffff167f8be0079c531659141344cd1fd0a4f28419497f9722a3daafe3b4186f6b6457e060405160405180910390a3611cb1806100db6000396000f3fe608060405234801561001057600080fd5b506004361061009e5760003560e01c8063c26001c611610066578063c26001c614610136578063f2fde38b14610167578063f4c714b414610183578063f8258bf0146101b6578063fc08a7d7146101e75761009e565b80630fe9a1d6146100a357806357613b8e146100bf578063715018a6146100f05780638da5cb5b146100fa5780638f32d59b14610118575b600080fd5b6100bd60048036038101906100b891906113c8565b610217565b005b6100d960048036038101906100d49190611333565b610635565b6040516100e7929190611756565b60405180910390f35b6100f86109db565b005b610102610aaa565b60405161010f919061173b565b60405180910390f35b610120610ad3565b60405161012d91906117af565b60405180910390f35b610150600480360381019061014b9190611387565b610b2a565b60405161015e9291906117ca565b60405180910390f35b610181600480360381019061017c919061130a565b610c13565b005b61019d60048036038101906101989190611447565b610c30565b6040516101ad94939291906117f3565b60405180910390f35b6101d060048036038101906101cb9190611387565b610da0565b6040516101de9291906118ab565b60405180910390f35b61020160048036038101906101fc919061130a565b610e57565b60405161020e919061178d565b60405180910390f35b60008080600090505b6001805490508110156102e1578460405160200161023e919061170d565b60405160208183030381529060405280519060200120600360008381526020019081526020016000206040516020016102779190611724565b6040516020818303038152906040528051906020012014156102ce57600192506002600082815260200190815260200160002060009054906101000a900473ffffffffffffffffffffffffffffffffffffffff1691505b80806102d990611b66565b915050610220565b5060011515821515141561032a576040517f08c379a00000000000000000000000000000000000000000000000000000000081526004016103219061188b565b60405180910390fd5b8273ffffffffffffffffffffffffffffffffffffffff168173ffffffffffffffffffffffffffffffffffffffff161415610399576040517f08c379a00000000000000000000000000000000000000000000000000000000081526004016103909061188b565b60405180910390fd5b6000429050600160405180608001604052808881526020018781526020018673ffffffffffffffffffffffffffffffffffffffff168152602001838152509080600181540180825580915050600190039060005260206000209060040201600090919091909150600082015181600001908051906020019061041c92919061113f565b50602082015181600101908051906020019061043992919061113f565b5060408201518160020160006101000a81548173ffffffffffffffffffffffffffffffffffffffff021916908373ffffffffffffffffffffffffffffffffffffffff1602179055506060820151816003015550506000600180805490506104a09190611a76565b9050336002600083815260200190815260200160002060006101000a81548173ffffffffffffffffffffffffffffffffffffffff021916908373ffffffffffffffffffffffffffffffffffffffff1602179055508560036000838152602001908152602001600020908051906020019061051b92919061113f565b508660046000838152602001908152602001600020908051906020019061054392919061113f565b506105976001600560003373ffffffffffffffffffffffffffffffffffffffff1673ffffffffffffffffffffffffffffffffffffffff16815260200190815260200160002054610ff690919063ffffffff16565b600560003373ffffffffffffffffffffffffffffffffffffffff1673ffffffffffffffffffffffffffffffffffffffff168152602001908152602001600020819055508473ffffffffffffffffffffffffffffffffffffffff167f15fcfac5eaf6fc2bd63c0f413b1c9885f063e4e81c98237dc2b55b2067bfddc688888560405161062493929190611846565b60405180910390a250505050505050565b6060806000600560008673ffffffffffffffffffffffffffffffffffffffff1673ffffffffffffffffffffffffffffffffffffffff1681526020019081526020016000205467ffffffffffffffff8111156106b9577f4e487b7100000000000000000000000000000000000000000000000000000000600052604160045260246000fd5b6040519080825280602002602001820160405280156106ec57816020015b60608152602001906001900390816106d75790505b5090506000600560008773ffffffffffffffffffffffffffffffffffffffff1673ffffffffffffffffffffffffffffffffffffffff1681526020019081526020016000205467ffffffffffffffff811115610770577f4e487b7100000000000000000000000000000000000000000000000000000000600052604160045260246000fd5b6040519080825280602002602001820160405280156107a357816020015b606081526020019060019003908161078e5790505b50905060005b85518110156109cb5760008682815181106107ed577f4e487b7100000000000000000000000000000000000000000000000000000000600052603260045260246000fd5b6020026020010151905060046000828152602001908152602001600020805461081590611b34565b80601f016020809104026020016040519081016040528092919081815260200182805461084190611b34565b801561088e5780601f106108635761010080835404028352916020019161088e565b820191906000526020600020905b81548152906001019060200180831161087157829003601f168201915b50505050508483815181106108cc577f4e487b7100000000000000000000000000000000000000000000000000000000600052603260045260246000fd5b60200260200101819052506003600082815260200190815260200160002080546108f590611b34565b80601f016020809104026020016040519081016040528092919081815260200182805461092190611b34565b801561096e5780601f106109435761010080835404028352916020019161096e565b820191906000526020600020905b81548152906001019060200180831161095157829003601f168201915b50505050508383815181106109ac577f4e487b7100000000000000000000000000000000000000000000000000000000600052603260045260246000fd5b60200260200101819052505080806109c390611b66565b9150506107a9565b5081819350935050509250929050565b6109e3610ad3565b6109ec57600080fd5b600073ffffffffffffffffffffffffffffffffffffffff1660008054906101000a900473ffffffffffffffffffffffffffffffffffffffff1673ffffffffffffffffffffffffffffffffffffffff167f8be0079c531659141344cd1fd0a4f28419497f9722a3daafe3b4186f6b6457e060405160405180910390a360008060006101000a81548173ffffffffffffffffffffffffffffffffffffffff021916908373ffffffffffffffffffffffffffffffffffffffff160217905550565b60008060009054906101000a900473ffffffffffffffffffffffffffffffffffffffff16905090565b60008060009054906101000a900473ffffffffffffffffffffffffffffffffffffffff1673ffffffffffffffffffffffffffffffffffffffff163373ffffffffffffffffffffffffffffffffffffffff1614905090565b60008060008080600090505b600180549050811015610c045785604051602001610b54919061170d565b6040516020818303038152906040528051906020012060036000838152602001908152602001600020604051602001610b8d9190611724565b604051602081830303815290604052805190602001201415610bf157600192506002600082815260200190815260200160002060009054906101000a900473ffffffffffffffffffffffffffffffffffffffff169150828294509450505050610c0e565b8080610bfc90611b66565b915050610b36565b5081819350935050505b915091565b610c1b610ad3565b610c2457600080fd5b610c2d81611048565b50565b60018181548110610c4057600080fd5b9060005260206000209060040201600091509050806000018054610c6390611b34565b80601f0160208091040260200160405190810160405280929190818152602001828054610c8f90611b34565b8015610cdc5780601f10610cb157610100808354040283529160200191610cdc565b820191906000526020600020905b815481529060010190602001808311610cbf57829003601f168201915b505050505090806001018054610cf190611b34565b80601f0160208091040260200160405190810160405280929190818152602001828054610d1d90611b34565b8015610d6a5780601f10610d3f57610100808354040283529160200191610d6a565b820191906000526020600020905b815481529060010190602001808311610d4d57829003601f168201915b5050505050908060020160009054906101000a900473ffffffffffffffffffffffffffffffffffffffff16908060030154905084565b6000806000805b600180549050811015610e3e5784604051602001610dc5919061170d565b6040516020818303038152906040528051906020012060036000838152602001908152602001600020604051602001610dfe9190611724565b604051602081830303815290604052805190602001201415610e2b57600191508082935093505050610e52565b8080610e3690611b66565b915050610da7565b506000600180549050905080829350935050505b915091565b60606000600560008473ffffffffffffffffffffffffffffffffffffffff1673ffffffffffffffffffffffffffffffffffffffff1681526020019081526020016000205467ffffffffffffffff811115610eda577f4e487b7100000000000000000000000000000000000000000000000000000000600052604160045260246000fd5b604051908082528060200260200182016040528015610f085781602001602082028036833780820191505090505b5090506000805b600180549050811015610feb578473ffffffffffffffffffffffffffffffffffffffff166002600083815260200190815260200160002060009054906101000a900473ffffffffffffffffffffffffffffffffffffffff1673ffffffffffffffffffffffffffffffffffffffff161415610fd85780838381518110610fbd577f4e487b7100000000000000000000000000000000000000000000000000000000600052603260045260246000fd5b6020026020010181815250508180610fd490611b66565b9250505b8080610fe390611b66565b915050610f0f565b508192505050919050565b60008082846110059190611a20565b90508381101561103e577f4e487b7100000000000000000000000000000000000000000000000000000000600052600160045260246000fd5b8091505092915050565b600073ffffffffffffffffffffffffffffffffffffffff168173ffffffffffffffffffffffffffffffffffffffff16141561108257600080fd5b8073ffffffffffffffffffffffffffffffffffffffff1660008054906101000a900473ffffffffffffffffffffffffffffffffffffffff1673ffffffffffffffffffffffffffffffffffffffff167f8be0079c531659141344cd1fd0a4f28419497f9722a3daafe3b4186f6b6457e060405160405180910390a3806000806101000a81548173ffffffffffffffffffffffffffffffffffffffff021916908373ffffffffffffffffffffffffffffffffffffffff16021790555050565b82805461114b90611b34565b90600052602060002090601f01602090048101928261116d57600085556111b4565b82601f1061118657805160ff19168380011785556111b4565b828001600101855582156111b4579182015b828111156111b3578251825591602001919060010190611198565b5b5090506111c191906111c5565b5090565b5b808211156111de5760008160009055506001016111c6565b5090565b60006111f56111f084611905565b6118d4565b9050808382526020820190508285602086028201111561121457600080fd5b60005b85811015611244578161122a88826112f5565b845260208401935060208301925050600181019050611217565b5050509392505050565b600061126161125c84611931565b6118d4565b90508281526020810184848401111561127957600080fd5b611284848285611af2565b509392505050565b60008135905061129b81611c4d565b92915050565b600082601f8301126112b257600080fd5b81356112c28482602086016111e2565b91505092915050565b600082601f8301126112dc57600080fd5b81356112ec84826020860161124e565b91505092915050565b60008135905061130481611c64565b92915050565b60006020828403121561131c57600080fd5b600061132a8482850161128c565b91505092915050565b6000806040838503121561134657600080fd5b60006113548582860161128c565b925050602083013567ffffffffffffffff81111561137157600080fd5b61137d858286016112a1565b9150509250929050565b60006020828403121561139957600080fd5b600082013567ffffffffffffffff8111156113b357600080fd5b6113bf848285016112cb565b91505092915050565b6000806000606084860312156113dd57600080fd5b600084013567ffffffffffffffff8111156113f757600080fd5b611403868287016112cb565b935050602084013567ffffffffffffffff81111561142057600080fd5b61142c868287016112cb565b925050604061143d8682870161128c565b9150509250925092565b60006020828403121561145957600080fd5b6000611467848285016112f5565b91505092915050565b600061147c838361158d565b905092915050565b600061149083836116ef565b60208301905092915050565b6114a581611aaa565b82525050565b60006114b682611996565b6114c081856119d1565b9350836020820285016114d285611961565b8060005b8581101561150e57848403895281516114ef8582611470565b94506114fa836119b7565b925060208a019950506001810190506114d6565b50829750879550505050505092915050565b600061152b826119a1565b61153581856119e2565b935061154083611971565b8060005b838110156115715781516115588882611484565b9750611563836119c4565b925050600181019050611544565b5085935050505092915050565b61158781611abc565b82525050565b6000611598826119ac565b6115a281856119f3565b93506115b2818560208601611b01565b6115bb81611c3c565b840191505092915050565b60006115d1826119ac565b6115db8185611a04565b93506115eb818560208601611b01565b6115f481611c3c565b840191505092915050565b600061160a826119ac565b6116148185611a15565b9350611624818560208601611b01565b80840191505092915050565b6000815461163d81611b34565b6116478186611a15565b945060018216600081146116625760018114611673576116a6565b60ff198316865281860193506116a6565b61167c85611981565b60005b8381101561169e5781548189015260018201915060208101905061167f565b838801955050505b50505092915050565b60006116bc601283611a04565b91507f46696c6520616c726561647920657869737400000000000000000000000000006000830152602082019050919050565b6116f881611ae8565b82525050565b61170781611ae8565b82525050565b600061171982846115ff565b915081905092915050565b60006117308284611630565b915081905092915050565b6000602082019050611750600083018461149c565b92915050565b6000604082019050818103600083015261177081856114ab565b9050818103602083015261178481846114ab565b90509392505050565b600060208201905081810360008301526117a78184611520565b905092915050565b60006020820190506117c4600083018461157e565b92915050565b60006040820190506117df600083018561157e565b6117ec602083018461149c565b9392505050565b6000608082019050818103600083015261180d81876115c6565b9050818103602083015261182181866115c6565b9050611830604083018561149c565b61183d60608301846116fe565b95945050505050565b6000606082019050818103600083015261186081866115c6565b9050818103602083015261187481856115c6565b905061188360408301846116fe565b949350505050565b600060208201905081810360008301526118a4816116af565b9050919050565b60006040820190506118c060008301856116fe565b6118cd602083018461157e565b9392505050565b6000604051905081810181811067ffffffffffffffff821117156118fb576118fa611c0d565b5b8060405250919050565b600067ffffffffffffffff8211156119205761191f611c0d565b5b602082029050602081019050919050565b600067ffffffffffffffff82111561194c5761194b611c0d565b5b601f19601f8301169050602081019050919050565b6000819050602082019050919050565b6000819050602082019050919050565b60008190508160005260206000209050919050565b600081519050919050565b600081519050919050565b600081519050919050565b6000602082019050919050565b6000602082019050919050565b600082825260208201905092915050565b600082825260208201905092915050565b600082825260208201905092915050565b600082825260208201905092915050565b600081905092915050565b6000611a2b82611ae8565b9150611a3683611ae8565b9250827fffffffffffffffffffffffffffffffffffffffffffffffffffffffffffffffff03821115611a6b57611a6a611baf565b5b828201905092915050565b6000611a8182611ae8565b9150611a8c83611ae8565b925082821015611a9f57611a9e611baf565b5b828203905092915050565b6000611ab582611ac8565b9050919050565b60008115159050919050565b600073ffffffffffffffffffffffffffffffffffffffff82169050919050565b6000819050919050565b82818337600083830152505050565b60005b83811015611b1f578082015181840152602081019050611b04565b83811115611b2e576000848401525b50505050565b60006002820490506001821680611b4c57607f821691505b60208210811415611b6057611b5f611bde565b5b50919050565b6000611b7182611ae8565b91507fffffffffffffffffffffffffffffffffffffffffffffffffffffffffffffffff821415611ba457611ba3611baf565b5b600182019050919050565b7f4e487b7100000000000000000000000000000000000000000000000000000000600052601160045260246000fd5b7f4e487b7100000000000000000000000000000000000000000000000000000000600052602260045260246000fd5b7f4e487b7100000000000000000000000000000000000000000000000000000000600052604160045260246000fd5b6000601f19601f8301169050919050565b611c5681611aaa565b8114611c6157600080fd5b50565b611c6d81611ae8565b8114611c7857600080fd5b5056fea2646970667358221220f7a390c7290e39cb582abcf9b62541e2590adb8d66bffc0c128c72604691dc9264736f6c63430008000033",
  "immutableReferences": {},
  "source": "// SPDX-License-Identifier: MIT\r\npragma solidity ^0.8.0;\r\n\r\nimport \"./StoreFile.sol\";\r\n\r\ncontract GetFile is StoreFile {\r\n  function getFilesByOwner(address _owner) public view returns(uint[] memory) {\r\n    uint[] memory result = new uint[](ownerFileCount[_owner]);\r\n    uint counter = 0;\r\n    for(uint i = 0; i < files.length; i++) {\r\n      if(fileToOwner[i] == _owner) {\r\n        result[counter] = i;\r\n        counter++;\r\n      }\r\n    }\r\n    return result;\r\n  }\r\n\r\n  function getOwnerFileDetails(address _owner, uint[] memory fileIds) public view returns(string[] memory, string[] memory) {\r\n    string[] memory fileNames = new string[](ownerFileCount[_owner]);\r\n    string[] memory fileHashes = new string[](ownerFileCount[_owner]);\r\n    for(uint i = 0; i < fileIds.length; i++) {\r\n      uint fileId = fileIds[i];\r\n      fileNames[i] = fileToName[fileId];\r\n      fileHashes[i] = fileToHash[fileId];\r\n    }\r\n    return (fileNames, fileHashes);\r\n  }\r\n\r\n  function checkFileExistByHash(string memory _fileHash) public view returns(bool, address) {\r\n    bool isExist = false;\r\n    address owner;\r\n    for(uint i = 0; i < files.length; i++) {\r\n      if(keccak256(abi.encodePacked(fileToHash[i])) == keccak256(abi.encodePacked(_fileHash))){\r\n        isExist = true;\r\n        owner = fileToOwner[i];\r\n        return (isExist, owner);\r\n      }\r\n    }\r\n    return (isExist, owner);\r\n  }\r\n\r\n  function getFileIdByHash(string memory _fileHash) public view returns(uint, bool) {\r\n    bool isExist = false;\r\n    for(uint i = 0; i < files.length; i++) {\r\n      if(keccak256(abi.encodePacked(fileToHash[i])) == keccak256(abi.encodePacked(_fileHash))){\r\n        isExist = true;\r\n        return (i, isExist);\r\n      }\r\n    }\r\n    uint id = files.length;\r\n    return(id, isExist);\r\n  }\r\n}",
  "sourcePath": "C:\\Users\\dhira\\Desktop\\Docs-Universe\\contracts\\GetFile.sol",
  "compiler": {
    "name": "solc",
    "version": "0.8.0+commit.c7dfd78e.Emscripten.clang"
  },
  "schemaVersion": "3.4.13",
  "updatedAt": "2023-05-30T06:38:17.951Z",
  "devdoc": {
    "kind": "dev",
    "methods": {
      "isOwner()": {
        "returns": {
          "_0": "true if `msg.sender` is the owner of the contract."
        }
      },
      "owner()": {
        "returns": {
          "_0": "the address of the owner."
        }
      },
      "renounceOwnership()": {
        "details": "Allows the current owner to relinquish control of the contract."
      },
      "transferOwnership(address)": {
        "details": "Allows the current owner to transfer control of the contract to a newOwner.",
        "params": {
          "newOwner": "The address to transfer ownership to."
        }
      }
    },
    "version": 1
  },
  "userdoc": {
    "kind": "user",
    "methods": {
      "renounceOwnership()": {
        "notice": "Renouncing to ownership will leave the contract without an owner. It will not be possible to call the functions with the `onlyOwner` modifier anymore."
      }
    },
    "version": 1
  }
}