{
  "contractName": "DocsUniverse",
  "abi": [
    {
      "anonymous": false,
      "inputs": [
        {
          "indexed": true,
          "internalType": "address",
          "name": "previousOwner",
          "type": "address"
        },
        {
          "indexed": true,
          "internalType": "address",
          "name": "newOwner",
          "type": "address"
        }
      ],
      "name": "OwnershipTransferred",
      "type": "event"
    },
    {
      "anonymous": false,
      "inputs": [
        {
          "indexed": false,
          "internalType": "string",
          "name": "name",
          "type": "string"
        },
        {
          "indexed": false,
          "internalType": "string",
          "name": "fileHash",
          "type": "string"
        },
        {
          "indexed": true,
          "internalType": "address",
          "name": "owner",
          "type": "address"
        },
        {
          "indexed": false,
          "internalType": "uint256",
          "name": "storeDate",
          "type": "uint256"
        }
      ],
      "name": "StoreFileEvent",
      "type": "event"
    },
    {
      "inputs": [
        {
          "internalType": "string",
          "name": "_name",
          "type": "string"
        },
        {
          "internalType": "string",
          "name": "_fileHash",
          "type": "string"
        },
        {
          "internalType": "address",
          "name": "_owner",
          "type": "address"
        }
      ],
      "name": "Store",
      "outputs": [],
      "stateMutability": "nonpayable",
      "type": "function"
    },
    {
      "inputs": [
        {
          "internalType": "address",
          "name": "_from",
          "type": "address"
        },
        {
          "internalType": "address",
          "name": "_to",
          "type": "address"
        },
        {
          "internalType": "uint256",
          "name": "_tokenId",
          "type": "uint256"
        }
      ],
      "name": "_transfer",
      "outputs": [],
      "stateMutability": "nonpayable",
      "type": "function"
    },
    {
      "inputs": [
        {
          "internalType": "string",
          "name": "_fileHash",
          "type": "string"
        }
      ],
      "name": "checkFileExistByHash",
      "outputs": [
        {
          "internalType": "bool",
          "name": "",
          "type": "bool"
        },
        {
          "internalType": "address",
          "name": "",
          "type": "address"
        }
      ],
      "stateMutability": "view",
      "type": "function",
      "constant": true
    },
    {
      "inputs": [
        {
          "internalType": "uint256",
          "name": "",
          "type": "uint256"
        }
      ],
      "name": "files",
      "outputs": [
        {
          "internalType": "string",
          "name": "name",
          "type": "string"
        },
        {
          "internalType": "string",
          "name": "fileHash",
          "type": "string"
        },
        {
          "internalType": "address",
          "name": "owner",
          "type": "address"
        },
        {
          "internalType": "uint256",
          "name": "storeDate",
          "type": "uint256"
        }
      ],
      "stateMutability": "view",
      "type": "function",
      "constant": true
    },
    {
      "inputs": [
        {
          "internalType": "string",
          "name": "_fileHash",
          "type": "string"
        }
      ],
      "name": "getFileIdByHash",
      "outputs": [
        {
          "internalType": "uint256",
          "name": "",
          "type": "uint256"
        },
        {
          "internalType": "bool",
          "name": "",
          "type": "bool"
        }
      ],
      "stateMutability": "view",
      "type": "function",
      "constant": true
    },
    {
      "inputs": [
        {
          "internalType": "address",
          "name": "_owner",
          "type": "address"
        }
      ],
      "name": "getFilesByOwner",
      "outputs": [
        {
          "internalType": "uint256[]",
          "name": "",
          "type": "uint256[]"
        }
      ],
      "stateMutability": "view",
      "type": "function",
      "constant": true
    },
    {
      "inputs": [
        {
          "internalType": "address",
          "name": "_owner",
          "type": "address"
        },
        {
          "internalType": "uint256[]",
          "name": "fileIds",
          "type": "uint256[]"
        }
      ],
      "name": "getOwnerFileDetails",
      "outputs": [
        {
          "internalType": "string[]",
          "name": "",
          "type": "string[]"
        },
        {
          "internalType": "string[]",
          "name": "",
          "type": "string[]"
        }
      ],
      "stateMutability": "view",
      "type": "function",
      "constant": true
    },
    {
      "inputs": [],
      "name": "isOwner",
      "outputs": [
        {
          "internalType": "bool",
          "name": "",
          "type": "bool"
        }
      ],
      "stateMutability": "view",
      "type": "function",
      "constant": true
    },
    {
      "inputs": [],
      "name": "owner",
      "outputs": [
        {
          "internalType": "address",
          "name": "",
          "type": "address"
        }
      ],
      "stateMutability": "view",
      "type": "function",
      "constant": true
    },
    {
      "inputs": [],
      "name": "renounceOwnership",
      "outputs": [],
      "stateMutability": "nonpayable",
      "type": "function"
    },
    {
      "inputs": [
        {
          "internalType": "address",
          "name": "newOwner",
          "type": "address"
        }
      ],
      "name": "transferOwnership",
      "outputs": [],
      "stateMutability": "nonpayable",
      "type": "function"
    }
  ],
  "bytecode": "0x608060405234801561001057600080fd5b50336000806101000a81548173ffffffffffffffffffffffffffffffffffffffff021916908373ffffffffffffffffffffffffffffffffffffffff16021790555060008054906101000a900473ffffffffffffffffffffffffffffffffffffffff1673ffffffffffffffffffffffffffffffffffffffff16600073ffffffffffffffffffffffffffffffffffffffff167f8be0079c531659141344cd1fd0a4f28419497f9722a3daafe3b4186f6b6457e060405160405180910390a3611f62806100db6000396000f3fe608060405234801561001057600080fd5b50600436106100a95760003560e01c80638f32d59b116100715780638f32d59b1461013f578063c26001c61461015d578063f2fde38b1461018e578063f4c714b4146101aa578063f8258bf0146101dd578063fc08a7d71461020e576100a9565b80630fe9a1d6146100ae57806330e0789e146100ca57806357613b8e146100e6578063715018a6146101175780638da5cb5b14610121575b600080fd5b6100c860048036038101906100c39190611679565b61023e565b005b6100e460048036038101906100df9190611595565b61065c565b005b61010060048036038101906100fb91906115e4565b61084a565b60405161010e929190611a07565b60405180910390f35b61011f610bf0565b005b610129610cbf565b60405161013691906119ec565b60405180910390f35b610147610ce8565b6040516101549190611a60565b60405180910390f35b61017760048036038101906101729190611638565b610d3f565b604051610185929190611a7b565b60405180910390f35b6101a860048036038101906101a3919061156c565b610e28565b005b6101c460048036038101906101bf91906116f8565b610e45565b6040516101d49493929190611aa4565b60405180910390f35b6101f760048036038101906101f29190611638565b610fb5565b604051610205929190611b5c565b60405180910390f35b6102286004803603810190610223919061156c565b61106c565b6040516102359190611a3e565b60405180910390f35b60008080600090505b600180549050811015610308578460405160200161026591906119be565b604051602081830303815290604052805190602001206003600083815260200190815260200160002060405160200161029e91906119d5565b6040516020818303038152906040528051906020012014156102f557600192506002600082815260200190815260200160002060009054906101000a900473ffffffffffffffffffffffffffffffffffffffff1691505b808061030090611e17565b915050610247565b50600115158215151415610351576040517f08c379a000000000000000000000000000000000000000000000000000000000815260040161034890611b3c565b60405180910390fd5b8273ffffffffffffffffffffffffffffffffffffffff168173ffffffffffffffffffffffffffffffffffffffff1614156103c0576040517f08c379a00000000000000000000000000000000000000000000000000000000081526004016103b790611b3c565b60405180910390fd5b6000429050600160405180608001604052808881526020018781526020018673ffffffffffffffffffffffffffffffffffffffff16815260200183815250908060018154018082558091505060019003906000526020600020906004020160009091909190915060008201518160000190805190602001906104439291906113a1565b5060208201518160010190805190602001906104609291906113a1565b5060408201518160020160006101000a81548173ffffffffffffffffffffffffffffffffffffffff021916908373ffffffffffffffffffffffffffffffffffffffff1602179055506060820151816003015550506000600180805490506104c79190611d27565b9050336002600083815260200190815260200160002060006101000a81548173ffffffffffffffffffffffffffffffffffffffff021916908373ffffffffffffffffffffffffffffffffffffffff160217905550856003600083815260200190815260200160002090805190602001906105429291906113a1565b508660046000838152602001908152602001600020908051906020019061056a9291906113a1565b506105be6001600560003373ffffffffffffffffffffffffffffffffffffffff1673ffffffffffffffffffffffffffffffffffffffff1681526020019081526020016000205461120b90919063ffffffff16565b600560003373ffffffffffffffffffffffffffffffffffffffff1673ffffffffffffffffffffffffffffffffffffffff168152602001908152602001600020819055508473ffffffffffffffffffffffffffffffffffffffff167f15fcfac5eaf6fc2bd63c0f413b1c9885f063e4e81c98237dc2b55b2067bfddc688888560405161064b93929190611af7565b60405180910390a250505050505050565b3373ffffffffffffffffffffffffffffffffffffffff166002600083815260200190815260200160002060009054906101000a900473ffffffffffffffffffffffffffffffffffffffff1673ffffffffffffffffffffffffffffffffffffffff16146106c757600080fd5b61071a6001600560008573ffffffffffffffffffffffffffffffffffffffff1673ffffffffffffffffffffffffffffffffffffffff1681526020019081526020016000205461120b90919063ffffffff16565b600560008473ffffffffffffffffffffffffffffffffffffffff1673ffffffffffffffffffffffffffffffffffffffff168152602001908152602001600020819055506107b06001600560008673ffffffffffffffffffffffffffffffffffffffff1673ffffffffffffffffffffffffffffffffffffffff1681526020019081526020016000205461125d90919063ffffffff16565b600560008573ffffffffffffffffffffffffffffffffffffffff1673ffffffffffffffffffffffffffffffffffffffff16815260200190815260200160002081905550816002600083815260200190815260200160002060006101000a81548173ffffffffffffffffffffffffffffffffffffffff021916908373ffffffffffffffffffffffffffffffffffffffff160217905550505050565b6060806000600560008673ffffffffffffffffffffffffffffffffffffffff1673ffffffffffffffffffffffffffffffffffffffff1681526020019081526020016000205467ffffffffffffffff8111156108ce577f4e487b7100000000000000000000000000000000000000000000000000000000600052604160045260246000fd5b60405190808252806020026020018201604052801561090157816020015b60608152602001906001900390816108ec5790505b5090506000600560008773ffffffffffffffffffffffffffffffffffffffff1673ffffffffffffffffffffffffffffffffffffffff1681526020019081526020016000205467ffffffffffffffff811115610985577f4e487b7100000000000000000000000000000000000000000000000000000000600052604160045260246000fd5b6040519080825280602002602001820160405280156109b857816020015b60608152602001906001900390816109a35790505b50905060005b8551811015610be0576000868281518110610a02577f4e487b7100000000000000000000000000000000000000000000000000000000600052603260045260246000fd5b60200260200101519050600460008281526020019081526020016000208054610a2a90611de5565b80601f0160208091040260200160405190810160405280929190818152602001828054610a5690611de5565b8015610aa35780601f10610a7857610100808354040283529160200191610aa3565b820191906000526020600020905b815481529060010190602001808311610a8657829003601f168201915b5050505050848381518110610ae1577f4e487b7100000000000000000000000000000000000000000000000000000000600052603260045260246000fd5b6020026020010181905250600360008281526020019081526020016000208054610b0a90611de5565b80601f0160208091040260200160405190810160405280929190818152602001828054610b3690611de5565b8015610b835780601f10610b5857610100808354040283529160200191610b83565b820191906000526020600020905b815481529060010190602001808311610b6657829003601f168201915b5050505050838381518110610bc1577f4e487b7100000000000000000000000000000000000000000000000000000000600052603260045260246000fd5b6020026020010181905250508080610bd890611e17565b9150506109be565b5081819350935050509250929050565b610bf8610ce8565b610c0157600080fd5b600073ffffffffffffffffffffffffffffffffffffffff1660008054906101000a900473ffffffffffffffffffffffffffffffffffffffff1673ffffffffffffffffffffffffffffffffffffffff167f8be0079c531659141344cd1fd0a4f28419497f9722a3daafe3b4186f6b6457e060405160405180910390a360008060006101000a81548173ffffffffffffffffffffffffffffffffffffffff021916908373ffffffffffffffffffffffffffffffffffffffff160217905550565b60008060009054906101000a900473ffffffffffffffffffffffffffffffffffffffff16905090565b60008060009054906101000a900473ffffffffffffffffffffffffffffffffffffffff1673ffffffffffffffffffffffffffffffffffffffff163373ffffffffffffffffffffffffffffffffffffffff1614905090565b60008060008080600090505b600180549050811015610e195785604051602001610d6991906119be565b6040516020818303038152906040528051906020012060036000838152602001908152602001600020604051602001610da291906119d5565b604051602081830303815290604052805190602001201415610e0657600192506002600082815260200190815260200160002060009054906101000a900473ffffffffffffffffffffffffffffffffffffffff169150828294509450505050610e23565b8080610e1190611e17565b915050610d4b565b5081819350935050505b915091565b610e30610ce8565b610e3957600080fd5b610e42816112aa565b50565b60018181548110610e5557600080fd5b9060005260206000209060040201600091509050806000018054610e7890611de5565b80601f0160208091040260200160405190810160405280929190818152602001828054610ea490611de5565b8015610ef15780601f10610ec657610100808354040283529160200191610ef1565b820191906000526020600020905b815481529060010190602001808311610ed457829003601f168201915b505050505090806001018054610f0690611de5565b80601f0160208091040260200160405190810160405280929190818152602001828054610f3290611de5565b8015610f7f5780601f10610f5457610100808354040283529160200191610f7f565b820191906000526020600020905b815481529060010190602001808311610f6257829003601f168201915b5050505050908060020160009054906101000a900473ffffffffffffffffffffffffffffffffffffffff16908060030154905084565b6000806000805b6001805490508110156110535784604051602001610fda91906119be565b604051602081830303815290604052805190602001206003600083815260200190815260200160002060405160200161101391906119d5565b60405160208183030381529060405280519060200120141561104057600191508082935093505050611067565b808061104b90611e17565b915050610fbc565b506000600180549050905080829350935050505b915091565b60606000600560008473ffffffffffffffffffffffffffffffffffffffff1673ffffffffffffffffffffffffffffffffffffffff1681526020019081526020016000205467ffffffffffffffff8111156110ef577f4e487b7100000000000000000000000000000000000000000000000000000000600052604160045260246000fd5b60405190808252806020026020018201604052801561111d5781602001602082028036833780820191505090505b5090506000805b600180549050811015611200578473ffffffffffffffffffffffffffffffffffffffff166002600083815260200190815260200160002060009054906101000a900473ffffffffffffffffffffffffffffffffffffffff1673ffffffffffffffffffffffffffffffffffffffff1614156111ed57808383815181106111d2577f4e487b7100000000000000000000000000000000000000000000000000000000600052603260045260246000fd5b60200260200101818152505081806111e990611e17565b9250505b80806111f890611e17565b915050611124565b508192505050919050565b600080828461121a9190611cd1565b905083811015611253577f4e487b7100000000000000000000000000000000000000000000000000000000600052600160045260246000fd5b8091505092915050565b600082821115611296577f4e487b7100000000000000000000000000000000000000000000000000000000600052600160045260246000fd5b81836112a29190611d27565b905092915050565b600073ffffffffffffffffffffffffffffffffffffffff168173ffffffffffffffffffffffffffffffffffffffff1614156112e457600080fd5b8073ffffffffffffffffffffffffffffffffffffffff1660008054906101000a900473ffffffffffffffffffffffffffffffffffffffff1673ffffffffffffffffffffffffffffffffffffffff167f8be0079c531659141344cd1fd0a4f28419497f9722a3daafe3b4186f6b6457e060405160405180910390a3806000806101000a81548173ffffffffffffffffffffffffffffffffffffffff021916908373ffffffffffffffffffffffffffffffffffffffff16021790555050565b8280546113ad90611de5565b90600052602060002090601f0160209004810192826113cf5760008555611416565b82601f106113e857805160ff1916838001178555611416565b82800160010185558215611416579182015b828111156114155782518255916020019190600101906113fa565b5b5090506114239190611427565b5090565b5b80821115611440576000816000905550600101611428565b5090565b600061145761145284611bb6565b611b85565b9050808382526020820190508285602086028201111561147657600080fd5b60005b858110156114a6578161148c8882611557565b845260208401935060208301925050600181019050611479565b5050509392505050565b60006114c36114be84611be2565b611b85565b9050828152602081018484840111156114db57600080fd5b6114e6848285611da3565b509392505050565b6000813590506114fd81611efe565b92915050565b600082601f83011261151457600080fd5b8135611524848260208601611444565b91505092915050565b600082601f83011261153e57600080fd5b813561154e8482602086016114b0565b91505092915050565b60008135905061156681611f15565b92915050565b60006020828403121561157e57600080fd5b600061158c848285016114ee565b91505092915050565b6000806000606084860312156115aa57600080fd5b60006115b8868287016114ee565b93505060206115c9868287016114ee565b92505060406115da86828701611557565b9150509250925092565b600080604083850312156115f757600080fd5b6000611605858286016114ee565b925050602083013567ffffffffffffffff81111561162257600080fd5b61162e85828601611503565b9150509250929050565b60006020828403121561164a57600080fd5b600082013567ffffffffffffffff81111561166457600080fd5b6116708482850161152d565b91505092915050565b60008060006060848603121561168e57600080fd5b600084013567ffffffffffffffff8111156116a857600080fd5b6116b48682870161152d565b935050602084013567ffffffffffffffff8111156116d157600080fd5b6116dd8682870161152d565b92505060406116ee868287016114ee565b9150509250925092565b60006020828403121561170a57600080fd5b600061171884828501611557565b91505092915050565b600061172d838361183e565b905092915050565b600061174183836119a0565b60208301905092915050565b61175681611d5b565b82525050565b600061176782611c47565b6117718185611c82565b93508360208202850161178385611c12565b8060005b858110156117bf57848403895281516117a08582611721565b94506117ab83611c68565b925060208a01995050600181019050611787565b50829750879550505050505092915050565b60006117dc82611c52565b6117e68185611c93565b93506117f183611c22565b8060005b838110156118225781516118098882611735565b975061181483611c75565b9250506001810190506117f5565b5085935050505092915050565b61183881611d6d565b82525050565b600061184982611c5d565b6118538185611ca4565b9350611863818560208601611db2565b61186c81611eed565b840191505092915050565b600061188282611c5d565b61188c8185611cb5565b935061189c818560208601611db2565b6118a581611eed565b840191505092915050565b60006118bb82611c5d565b6118c58185611cc6565b93506118d5818560208601611db2565b80840191505092915050565b600081546118ee81611de5565b6118f88186611cc6565b94506001821660008114611913576001811461192457611957565b60ff19831686528186019350611957565b61192d85611c32565b60005b8381101561194f57815481890152600182019150602081019050611930565b838801955050505b50505092915050565b600061196d601283611cb5565b91507f46696c6520616c726561647920657869737400000000000000000000000000006000830152602082019050919050565b6119a981611d99565b82525050565b6119b881611d99565b82525050565b60006119ca82846118b0565b915081905092915050565b60006119e182846118e1565b915081905092915050565b6000602082019050611a01600083018461174d565b92915050565b60006040820190508181036000830152611a21818561175c565b90508181036020830152611a35818461175c565b90509392505050565b60006020820190508181036000830152611a5881846117d1565b905092915050565b6000602082019050611a75600083018461182f565b92915050565b6000604082019050611a90600083018561182f565b611a9d602083018461174d565b9392505050565b60006080820190508181036000830152611abe8187611877565b90508181036020830152611ad28186611877565b9050611ae1604083018561174d565b611aee60608301846119af565b95945050505050565b60006060820190508181036000830152611b118186611877565b90508181036020830152611b258185611877565b9050611b3460408301846119af565b949350505050565b60006020820190508181036000830152611b5581611960565b9050919050565b6000604082019050611b7160008301856119af565b611b7e602083018461182f565b9392505050565b6000604051905081810181811067ffffffffffffffff82111715611bac57611bab611ebe565b5b8060405250919050565b600067ffffffffffffffff821115611bd157611bd0611ebe565b5b602082029050602081019050919050565b600067ffffffffffffffff821115611bfd57611bfc611ebe565b5b601f19601f8301169050602081019050919050565b6000819050602082019050919050565b6000819050602082019050919050565b60008190508160005260206000209050919050565b600081519050919050565b600081519050919050565b600081519050919050565b6000602082019050919050565b6000602082019050919050565b600082825260208201905092915050565b600082825260208201905092915050565b600082825260208201905092915050565b600082825260208201905092915050565b600081905092915050565b6000611cdc82611d99565b9150611ce783611d99565b9250827fffffffffffffffffffffffffffffffffffffffffffffffffffffffffffffffff03821115611d1c57611d1b611e60565b5b828201905092915050565b6000611d3282611d99565b9150611d3d83611d99565b925082821015611d5057611d4f611e60565b5b828203905092915050565b6000611d6682611d79565b9050919050565b60008115159050919050565b600073ffffffffffffffffffffffffffffffffffffffff82169050919050565b6000819050919050565b82818337600083830152505050565b60005b83811015611dd0578082015181840152602081019050611db5565b83811115611ddf576000848401525b50505050565b60006002820490506001821680611dfd57607f821691505b60208210811415611e1157611e10611e8f565b5b50919050565b6000611e2282611d99565b91507fffffffffffffffffffffffffffffffffffffffffffffffffffffffffffffffff821415611e5557611e54611e60565b5b600182019050919050565b7f4e487b7100000000000000000000000000000000000000000000000000000000600052601160045260246000fd5b7f4e487b7100000000000000000000000000000000000000000000000000000000600052602260045260246000fd5b7f4e487b7100000000000000000000000000000000000000000000000000000000600052604160045260246000fd5b6000601f19601f8301169050919050565b611f0781611d5b565b8114611f1257600080fd5b50565b611f1e81611d99565b8114611f2957600080fd5b5056fea2646970667358221220b2dc842442aa9d155adb031508c23add9c22f7d47c75922130ee38d93c5a802b64736f6c63430008000033",
  "immutableReferences": {},
  "source": "// SPDX-License-Identifier: MIT\r\npragma solidity ^0.8.0;\r\n\r\nimport \"./FileOwnership.sol\";\r\n\r\ncontract DocsUniverse is FileOwnership {\r\n}",
  "sourcePath": "C:\\Users\\dhira\\Desktop\\Docs-Universe\\contracts\\DocsUniverse.sol",
  "compiler": {
    "name": "solc",
    "version": "0.8.0+commit.c7dfd78e.Emscripten.clang"
  },
  "schemaVersion": "3.4.13",
  "updatedAt": "2023-05-30T06:39:02.138Z",
  "networkType": "ethereum",
  "devdoc": {
    "kind": "dev",
    "methods": {
      "isOwner()": {
        "returns": {
          "_0": "true if `msg.sender` is the owner of the contract."
        }
      },
      "owner()": {
        "returns": {
          "_0": "the address of the owner."
        }
      },
      "renounceOwnership()": {
        "details": "Allows the current owner to relinquish control of the contract."
      },
      "transferOwnership(address)": {
        "details": "Allows the current owner to transfer control of the contract to a newOwner.",
        "params": {
          "newOwner": "The address to transfer ownership to."
        }
      }
    },
    "version": 1
  },
  "userdoc": {
    "kind": "user",
    "methods": {
      "renounceOwnership()": {
        "notice": "Renouncing to ownership will leave the contract without an owner. It will not be possible to call the functions with the `onlyOwner` modifier anymore."
      }
    },
    "version": 1
  }
}