{
  "contractName": "PlanetOfDocs",
  "abi": [
    {
      "anonymous": false,
      "inputs": [
        {
          "indexed": true,
          "internalType": "address",
          "name": "previousOwner",
          "type": "address"
        },
        {
          "indexed": true,
          "internalType": "address",
          "name": "newOwner",
          "type": "address"
        }
      ],
      "name": "OwnershipTransferred",
      "type": "event"
    },
    {
      "anonymous": false,
      "inputs": [
        {
          "indexed": false,
          "internalType": "string",
          "name": "name",
          "type": "string"
        },
        {
          "indexed": false,
          "internalType": "string",
          "name": "fileHash",
          "type": "string"
        },
        {
          "indexed": true,
          "internalType": "address",
          "name": "owner",
          "type": "address"
        },
        {
          "indexed": false,
          "internalType": "uint256",
          "name": "storeDate",
          "type": "uint256"
        }
      ],
      "name": "StoreFileEvent",
      "type": "event"
    },
    {
      "inputs": [
        {
          "internalType": "string",
          "name": "_name",
          "type": "string"
        },
        {
          "internalType": "string",
          "name": "_fileHash",
          "type": "string"
        },
        {
          "internalType": "address",
          "name": "_owner",
          "type": "address"
        }
      ],
      "name": "Store",
      "outputs": [],
      "stateMutability": "nonpayable",
      "type": "function"
    },
    {
      "inputs": [
        {
          "internalType": "address",
          "name": "_from",
          "type": "address"
        },
        {
          "internalType": "address",
          "name": "_to",
          "type": "address"
        },
        {
          "internalType": "uint256",
          "name": "_tokenId",
          "type": "uint256"
        }
      ],
      "name": "_transfer",
      "outputs": [],
      "stateMutability": "nonpayable",
      "type": "function"
    },
    {
      "inputs": [
        {
          "internalType": "string",
          "name": "_fileHash",
          "type": "string"
        }
      ],
      "name": "checkFileExistByHash",
      "outputs": [
        {
          "internalType": "bool",
          "name": "",
          "type": "bool"
        },
        {
          "internalType": "address",
          "name": "",
          "type": "address"
        }
      ],
      "stateMutability": "view",
      "type": "function",
      "constant": true
    },
    {
      "inputs": [
        {
          "internalType": "uint256",
          "name": "",
          "type": "uint256"
        }
      ],
      "name": "files",
      "outputs": [
        {
          "internalType": "string",
          "name": "name",
          "type": "string"
        },
        {
          "internalType": "string",
          "name": "fileHash",
          "type": "string"
        },
        {
          "internalType": "address",
          "name": "owner",
          "type": "address"
        },
        {
          "internalType": "uint256",
          "name": "storeDate",
          "type": "uint256"
        }
      ],
      "stateMutability": "view",
      "type": "function",
      "constant": true
    },
    {
      "inputs": [
        {
          "internalType": "string",
          "name": "_fileHash",
          "type": "string"
        }
      ],
      "name": "getFileIdByHash",
      "outputs": [
        {
          "internalType": "uint256",
          "name": "",
          "type": "uint256"
        },
        {
          "internalType": "bool",
          "name": "",
          "type": "bool"
        }
      ],
      "stateMutability": "view",
      "type": "function",
      "constant": true
    },
    {
      "inputs": [
        {
          "internalType": "address",
          "name": "_owner",
          "type": "address"
        }
      ],
      "name": "getFilesByOwner",
      "outputs": [
        {
          "internalType": "uint256[]",
          "name": "",
          "type": "uint256[]"
        }
      ],
      "stateMutability": "view",
      "type": "function",
      "constant": true
    },
    {
      "inputs": [
        {
          "internalType": "address",
          "name": "_owner",
          "type": "address"
        },
        {
          "internalType": "uint256[]",
          "name": "fileIds",
          "type": "uint256[]"
        }
      ],
      "name": "getOwnerFileDetails",
      "outputs": [
        {
          "internalType": "string[]",
          "name": "",
          "type": "string[]"
        },
        {
          "internalType": "string[]",
          "name": "",
          "type": "string[]"
        }
      ],
      "stateMutability": "view",
      "type": "function",
      "constant": true
    },
    {
      "inputs": [],
      "name": "isOwner",
      "outputs": [
        {
          "internalType": "bool",
          "name": "",
          "type": "bool"
        }
      ],
      "stateMutability": "view",
      "type": "function",
      "constant": true
    },
    {
      "inputs": [],
      "name": "owner",
      "outputs": [
        {
          "internalType": "address",
          "name": "",
          "type": "address"
        }
      ],
      "stateMutability": "view",
      "type": "function",
      "constant": true
    },
    {
      "inputs": [],
      "name": "renounceOwnership",
      "outputs": [],
      "stateMutability": "nonpayable",
      "type": "function"
    },
    {
      "inputs": [
        {
          "internalType": "address",
          "name": "newOwner",
          "type": "address"
        }
      ],
      "name": "transferOwnership",
      "outputs": [],
      "stateMutability": "nonpayable",
      "type": "function"
    }
  ],
  "bytecode": "0x608060405234801561001057600080fd5b50336000806101000a81548173ffffffffffffffffffffffffffffffffffffffff021916908373ffffffffffffffffffffffffffffffffffffffff16021790555060008054906101000a900473ffffffffffffffffffffffffffffffffffffffff1673ffffffffffffffffffffffffffffffffffffffff16600073ffffffffffffffffffffffffffffffffffffffff167f8be0079c531659141344cd1fd0a4f28419497f9722a3daafe3b4186f6b6457e060405160405180910390a361208b806100db6000396000f3fe608060405234801561001057600080fd5b50600436106100a95760003560e01c80638f32d59b116100715780638f32d59b1461013f578063c26001c61461015d578063f2fde38b1461018e578063f4c714b4146101aa578063f8258bf0146101dd578063fc08a7d71461020e576100a9565b80630fe9a1d6146100ae57806330e0789e146100ca57806357613b8e146100e6578063715018a6146101175780638da5cb5b14610121575b600080fd5b6100c860048036038101906100c391906113e0565b61023e565b005b6100e460048036038101906100df91906114a1565b61063d565b005b61010060048036038101906100fb91906115bc565b61082b565b60405161010e929190611762565b60405180910390f35b61011f610b13565b005b610129610be2565b60405161013691906117a8565b60405180910390f35b610147610c0b565b60405161015491906117de565b60405180910390f35b610177600480360381019061017291906117f9565b610c62565b604051610185929190611842565b60405180910390f35b6101a860048036038101906101a3919061186b565b610d4a565b005b6101c460048036038101906101bf9190611898565b610d67565b6040516101d4949392919061191e565b60405180910390f35b6101f760048036038101906101f291906117f9565b610ed7565b604051610205929190611971565b60405180910390f35b6102286004803603810190610223919061186b565b610f8d565b6040516102359190611a58565b60405180910390f35b60008080600090505b60018054905081101561030757846040516020016102659190611ab6565b604051602081830303815290604052805190602001206003600083815260200190815260200160002060405160200161029e9190611bc5565b60405160208183030381529060405280519060200120036102f457600192506002600082815260200190815260200160002060009054906101000a900473ffffffffffffffffffffffffffffffffffffffff1691505b80806102ff90611c0b565b915050610247565b50600115158215150361034f576040517f08c379a000000000000000000000000000000000000000000000000000000000815260040161034690611c9f565b60405180910390fd5b8273ffffffffffffffffffffffffffffffffffffffff168173ffffffffffffffffffffffffffffffffffffffff16036103bd576040517f08c379a00000000000000000000000000000000000000000000000000000000081526004016103b490611c9f565b60405180910390fd5b6000429050600160405180608001604052808881526020018781526020018673ffffffffffffffffffffffffffffffffffffffff16815260200183815250908060018154018082558091505060019003906000526020600020906004020160009091909190915060008201518160000190816104399190611e56565b50602082015181600101908161044f9190611e56565b5060408201518160020160006101000a81548173ffffffffffffffffffffffffffffffffffffffff021916908373ffffffffffffffffffffffffffffffffffffffff1602179055506060820151816003015550506000600180805490506104b69190611f28565b9050336002600083815260200190815260200160002060006101000a81548173ffffffffffffffffffffffffffffffffffffffff021916908373ffffffffffffffffffffffffffffffffffffffff1602179055508560036000838152602001908152602001600020908161052a9190611e56565b508660046000838152602001908152602001600020908161054b9190611e56565b5061059f6001600560003373ffffffffffffffffffffffffffffffffffffffff1673ffffffffffffffffffffffffffffffffffffffff168152602001908152602001600020546110df90919063ffffffff16565b600560003373ffffffffffffffffffffffffffffffffffffffff1673ffffffffffffffffffffffffffffffffffffffff168152602001908152602001600020819055508473ffffffffffffffffffffffffffffffffffffffff167f15fcfac5eaf6fc2bd63c0f413b1c9885f063e4e81c98237dc2b55b2067bfddc688888560405161062c93929190611f5c565b60405180910390a250505050505050565b3373ffffffffffffffffffffffffffffffffffffffff166002600083815260200190815260200160002060009054906101000a900473ffffffffffffffffffffffffffffffffffffffff1673ffffffffffffffffffffffffffffffffffffffff16146106a857600080fd5b6106fb6001600560008573ffffffffffffffffffffffffffffffffffffffff1673ffffffffffffffffffffffffffffffffffffffff168152602001908152602001600020546110df90919063ffffffff16565b600560008473ffffffffffffffffffffffffffffffffffffffff1673ffffffffffffffffffffffffffffffffffffffff168152602001908152602001600020819055506107916001600560008673ffffffffffffffffffffffffffffffffffffffff1673ffffffffffffffffffffffffffffffffffffffff1681526020019081526020016000205461110b90919063ffffffff16565b600560008573ffffffffffffffffffffffffffffffffffffffff1673ffffffffffffffffffffffffffffffffffffffff16815260200190815260200160002081905550816002600083815260200190815260200160002060006101000a81548173ffffffffffffffffffffffffffffffffffffffff021916908373ffffffffffffffffffffffffffffffffffffffff160217905550505050565b6060806000600560008673ffffffffffffffffffffffffffffffffffffffff1673ffffffffffffffffffffffffffffffffffffffff1681526020019081526020016000205467ffffffffffffffff81111561088957610888611257565b5b6040519080825280602002602001820160405280156108bc57816020015b60608152602001906001900390816108a75790505b5090506000600560008773ffffffffffffffffffffffffffffffffffffffff1673ffffffffffffffffffffffffffffffffffffffff1681526020019081526020016000205467ffffffffffffffff81111561091a57610919611257565b5b60405190808252806020026020018201604052801561094d57816020015b60608152602001906001900390816109385790505b50905060005b8551811015610b0357600086828151811061097157610970611fa1565b5b6020026020010151905060046000828152602001908152602001600020805461099990611afc565b80601f01602080910402602001604051908101604052809291908181526020018280546109c590611afc565b8015610a125780601f106109e757610100808354040283529160200191610a12565b820191906000526020600020905b8154815290600101906020018083116109f557829003601f168201915b5050505050848381518110610a2a57610a29611fa1565b5b6020026020010181905250600360008281526020019081526020016000208054610a5390611afc565b80601f0160208091040260200160405190810160405280929190818152602001828054610a7f90611afc565b8015610acc5780601f10610aa157610100808354040283529160200191610acc565b820191906000526020600020905b815481529060010190602001808311610aaf57829003601f168201915b5050505050838381518110610ae457610ae3611fa1565b5b6020026020010181905250508080610afb90611c0b565b915050610953565b5081819350935050509250929050565b610b1b610c0b565b610b2457600080fd5b600073ffffffffffffffffffffffffffffffffffffffff1660008054906101000a900473ffffffffffffffffffffffffffffffffffffffff1673ffffffffffffffffffffffffffffffffffffffff167f8be0079c531659141344cd1fd0a4f28419497f9722a3daafe3b4186f6b6457e060405160405180910390a360008060006101000a81548173ffffffffffffffffffffffffffffffffffffffff021916908373ffffffffffffffffffffffffffffffffffffffff160217905550565b60008060009054906101000a900473ffffffffffffffffffffffffffffffffffffffff16905090565b60008060009054906101000a900473ffffffffffffffffffffffffffffffffffffffff1673ffffffffffffffffffffffffffffffffffffffff163373ffffffffffffffffffffffffffffffffffffffff1614905090565b60008060008080600090505b600180549050811015610d3b5785604051602001610c8c9190611ab6565b6040516020818303038152906040528051906020012060036000838152602001908152602001600020604051602001610cc59190611bc5565b6040516020818303038152906040528051906020012003610d2857600192506002600082815260200190815260200160002060009054906101000a900473ffffffffffffffffffffffffffffffffffffffff169150828294509450505050610d45565b8080610d3390611c0b565b915050610c6e565b5081819350935050505b915091565b610d52610c0b565b610d5b57600080fd5b610d6481611132565b50565b60018181548110610d7757600080fd5b9060005260206000209060040201600091509050806000018054610d9a90611afc565b80601f0160208091040260200160405190810160405280929190818152602001828054610dc690611afc565b8015610e135780601f10610de857610100808354040283529160200191610e13565b820191906000526020600020905b815481529060010190602001808311610df657829003601f168201915b505050505090806001018054610e2890611afc565b80601f0160208091040260200160405190810160405280929190818152602001828054610e5490611afc565b8015610ea15780601f10610e7657610100808354040283529160200191610ea1565b820191906000526020600020905b815481529060010190602001808311610e8457829003601f168201915b5050505050908060020160009054906101000a900473ffffffffffffffffffffffffffffffffffffffff16908060030154905084565b6000806000805b600180549050811015610f745784604051602001610efc9190611ab6565b6040516020818303038152906040528051906020012060036000838152602001908152602001600020604051602001610f359190611bc5565b6040516020818303038152906040528051906020012003610f6157600191508082935093505050610f88565b8080610f6c90611c0b565b915050610ede565b506000600180549050905080829350935050505b915091565b60606000600560008473ffffffffffffffffffffffffffffffffffffffff1673ffffffffffffffffffffffffffffffffffffffff1681526020019081526020016000205467ffffffffffffffff811115610fea57610fe9611257565b5b6040519080825280602002602001820160405280156110185781602001602082028036833780820191505090505b5090506000805b6001805490508110156110d4578473ffffffffffffffffffffffffffffffffffffffff166002600083815260200190815260200160002060009054906101000a900473ffffffffffffffffffffffffffffffffffffffff1673ffffffffffffffffffffffffffffffffffffffff16036110c157808383815181106110a6576110a5611fa1565b5b60200260200101818152505081806110bd90611c0b565b9250505b80806110cc90611c0b565b91505061101f565b508192505050919050565b60008082846110ee9190611fd0565b90508381101561110157611100612026565b5b8091505092915050565b60008282111561111e5761111d612026565b5b818361112a9190611f28565b905092915050565b600073ffffffffffffffffffffffffffffffffffffffff168173ffffffffffffffffffffffffffffffffffffffff160361116b57600080fd5b8073ffffffffffffffffffffffffffffffffffffffff1660008054906101000a900473ffffffffffffffffffffffffffffffffffffffff1673ffffffffffffffffffffffffffffffffffffffff167f8be0079c531659141344cd1fd0a4f28419497f9722a3daafe3b4186f6b6457e060405160405180910390a3806000806101000a81548173ffffffffffffffffffffffffffffffffffffffff021916908373ffffffffffffffffffffffffffffffffffffffff16021790555050565b6000604051905090565b600080fd5b600080fd5b600080fd5b600080fd5b6000601f19601f8301169050919050565b7f4e487b7100000000000000000000000000000000000000000000000000000000600052604160045260246000fd5b61128f82611246565b810181811067ffffffffffffffff821117156112ae576112ad611257565b5b80604052505050565b60006112c1611228565b90506112cd8282611286565b919050565b600067ffffffffffffffff8211156112ed576112ec611257565b5b6112f682611246565b9050602081019050919050565b82818337600083830152505050565b6000611325611320846112d2565b6112b7565b90508281526020810184848401111561134157611340611241565b5b61134c848285611303565b509392505050565b600082601f8301126113695761136861123c565b5b8135611379848260208601611312565b91505092915050565b600073ffffffffffffffffffffffffffffffffffffffff82169050919050565b60006113ad82611382565b9050919050565b6113bd816113a2565b81146113c857600080fd5b50565b6000813590506113da816113b4565b92915050565b6000806000606084860312156113f9576113f8611232565b5b600084013567ffffffffffffffff81111561141757611416611237565b5b61142386828701611354565b935050602084013567ffffffffffffffff81111561144457611443611237565b5b61145086828701611354565b9250506040611461868287016113cb565b9150509250925092565b6000819050919050565b61147e8161146b565b811461148957600080fd5b50565b60008135905061149b81611475565b92915050565b6000806000606084860312156114ba576114b9611232565b5b60006114c8868287016113cb565b93505060206114d9868287016113cb565b92505060406114ea8682870161148c565b9150509250925092565b600067ffffffffffffffff82111561150f5761150e611257565b5b602082029050602081019050919050565b600080fd5b6000611538611533846114f4565b6112b7565b9050808382526020820190506020840283018581111561155b5761155a611520565b5b835b818110156115845780611570888261148c565b84526020840193505060208101905061155d565b5050509392505050565b600082601f8301126115a3576115a261123c565b5b81356115b3848260208601611525565b91505092915050565b600080604083850312156115d3576115d2611232565b5b60006115e1858286016113cb565b925050602083013567ffffffffffffffff81111561160257611601611237565b5b61160e8582860161158e565b9150509250929050565b600081519050919050565b600082825260208201905092915050565b6000819050602082019050919050565b600081519050919050565b600082825260208201905092915050565b60005b8381101561167e578082015181840152602081019050611663565b8381111561168d576000848401525b50505050565b600061169e82611644565b6116a8818561164f565b93506116b8818560208601611660565b6116c181611246565b840191505092915050565b60006116d88383611693565b905092915050565b6000602082019050919050565b60006116f882611618565b6117028185611623565b93508360208202850161171485611634565b8060005b85811015611750578484038952815161173185826116cc565b945061173c836116e0565b925060208a01995050600181019050611718565b50829750879550505050505092915050565b6000604082019050818103600083015261177c81856116ed565b9050818103602083015261179081846116ed565b90509392505050565b6117a2816113a2565b82525050565b60006020820190506117bd6000830184611799565b92915050565b60008115159050919050565b6117d8816117c3565b82525050565b60006020820190506117f360008301846117cf565b92915050565b60006020828403121561180f5761180e611232565b5b600082013567ffffffffffffffff81111561182d5761182c611237565b5b61183984828501611354565b91505092915050565b600060408201905061185760008301856117cf565b6118646020830184611799565b9392505050565b60006020828403121561188157611880611232565b5b600061188f848285016113cb565b91505092915050565b6000602082840312156118ae576118ad611232565b5b60006118bc8482850161148c565b91505092915050565b600082825260208201905092915050565b60006118e182611644565b6118eb81856118c5565b93506118fb818560208601611660565b61190481611246565b840191505092915050565b6119188161146b565b82525050565b6000608082019050818103600083015261193881876118d6565b9050818103602083015261194c81866118d6565b905061195b6040830185611799565b611968606083018461190f565b95945050505050565b6000604082019050611986600083018561190f565b61199360208301846117cf565b9392505050565b600081519050919050565b600082825260208201905092915050565b6000819050602082019050919050565b6119cf8161146b565b82525050565b60006119e183836119c6565b60208301905092915050565b6000602082019050919050565b6000611a058261199a565b611a0f81856119a5565b9350611a1a836119b6565b8060005b83811015611a4b578151611a3288826119d5565b9750611a3d836119ed565b925050600181019050611a1e565b5085935050505092915050565b60006020820190508181036000830152611a7281846119fa565b905092915050565b600081905092915050565b6000611a9082611644565b611a9a8185611a7a565b9350611aaa818560208601611660565b80840191505092915050565b6000611ac28284611a85565b915081905092915050565b7f4e487b7100000000000000000000000000000000000000000000000000000000600052602260045260246000fd5b60006002820490506001821680611b1457607f821691505b602082108103611b2757611b26611acd565b5b50919050565b60008190508160005260206000209050919050565b60008154611b4f81611afc565b611b598186611a7a565b94506001821660008114611b745760018114611b8957611bbc565b60ff1983168652811515820286019350611bbc565b611b9285611b2d565b60005b83811015611bb457815481890152600182019150602081019050611b95565b838801955050505b50505092915050565b6000611bd18284611b42565b915081905092915050565b7f4e487b7100000000000000000000000000000000000000000000000000000000600052601160045260246000fd5b6000611c168261146b565b91507fffffffffffffffffffffffffffffffffffffffffffffffffffffffffffffffff8203611c4857611c47611bdc565b5b600182019050919050565b7f46696c6520616c72656164792065786973740000000000000000000000000000600082015250565b6000611c896012836118c5565b9150611c9482611c53565b602082019050919050565b60006020820190508181036000830152611cb881611c7c565b9050919050565b60006020601f8301049050919050565b600082821b905092915050565b600060088302611d0c7fffffffffffffffffffffffffffffffffffffffffffffffffffffffffffffffff82611ccf565b611d168683611ccf565b95508019841693508086168417925050509392505050565b6000819050919050565b6000611d53611d4e611d498461146b565b611d2e565b61146b565b9050919050565b6000819050919050565b611d6d83611d38565b611d81611d7982611d5a565b848454611cdc565b825550505050565b600090565b611d96611d89565b611da1818484611d64565b505050565b5b81811015611dc557611dba600082611d8e565b600181019050611da7565b5050565b601f821115611e0a57611ddb81611b2d565b611de484611cbf565b81016020851015611df3578190505b611e07611dff85611cbf565b830182611da6565b50505b505050565b600082821c905092915050565b6000611e2d60001984600802611e0f565b1980831691505092915050565b6000611e468383611e1c565b9150826002028217905092915050565b611e5f82611644565b67ffffffffffffffff811115611e7857611e77611257565b5b611e828254611afc565b611e8d828285611dc9565b600060209050601f831160018114611ec05760008415611eae578287015190505b611eb88582611e3a565b865550611f20565b601f198416611ece86611b2d565b60005b82811015611ef657848901518255600182019150602085019450602081019050611ed1565b86831015611f135784890151611f0f601f891682611e1c565b8355505b6001600288020188555050505b505050505050565b6000611f338261146b565b9150611f3e8361146b565b925082821015611f5157611f50611bdc565b5b828203905092915050565b60006060820190508181036000830152611f7681866118d6565b90508181036020830152611f8a81856118d6565b9050611f99604083018461190f565b949350505050565b7f4e487b7100000000000000000000000000000000000000000000000000000000600052603260045260246000fd5b6000611fdb8261146b565b9150611fe68361146b565b9250827fffffffffffffffffffffffffffffffffffffffffffffffffffffffffffffffff0382111561201b5761201a611bdc565b5b828201905092915050565b7f4e487b7100000000000000000000000000000000000000000000000000000000600052600160045260246000fdfea26469706673582212202c6460f2f3cda4d0dbdeea604886392f3c615ed7fd44245ce8d696f962fa066964736f6c634300080f0033",
  "immutableReferences": {},
  "source": "// SPDX-License-Identifier: MIT\r\npragma solidity ^0.8.0;\r\n\r\nimport \"./FileOwnership.sol\";\r\n\r\ncontract PlanetOfDocs is FileOwnership {\r\n}",
  "sourcePath": "E:\\Docs-Universe\\contracts\\PlanetOfDocs.sol",
  "compiler": {
    "name": "solc",
    "version": "0.8.15+commit.e14f2714.Emscripten.clang"
  },
  "schemaVersion": "3.4.8",
  "updatedAt": "2022-07-23T19:16:25.956Z",
  "networkType": "ethereum",
  "devdoc": {
    "kind": "dev",
    "methods": {
      "isOwner()": {
        "returns": {
          "_0": "true if `msg.sender` is the owner of the contract."
        }
      },
      "owner()": {
        "returns": {
          "_0": "the address of the owner."
        }
      },
      "renounceOwnership()": {
        "details": "Allows the current owner to relinquish control of the contract."
      },
      "transferOwnership(address)": {
        "details": "Allows the current owner to transfer control of the contract to a newOwner.",
        "params": {
          "newOwner": "The address to transfer ownership to."
        }
      }
    },
    "version": 1
  },
  "userdoc": {
    "kind": "user",
    "methods": {
      "renounceOwnership()": {
        "notice": "Renouncing to ownership will leave the contract without an owner. It will not be possible to call the functions with the `onlyOwner` modifier anymore."
      }
    },
    "version": 1
  }
}