{
  "contractName": "StoreFile",
  "abi": [
    {
      "anonymous": false,
      "inputs": [
        {
          "indexed": true,
          "internalType": "address",
          "name": "previousOwner",
          "type": "address"
        },
        {
          "indexed": true,
          "internalType": "address",
          "name": "newOwner",
          "type": "address"
        }
      ],
      "name": "OwnershipTransferred",
      "type": "event"
    },
    {
      "anonymous": false,
      "inputs": [
        {
          "indexed": false,
          "internalType": "string",
          "name": "name",
          "type": "string"
        },
        {
          "indexed": false,
          "internalType": "string",
          "name": "fileHash",
          "type": "string"
        },
        {
          "indexed": true,
          "internalType": "address",
          "name": "owner",
          "type": "address"
        },
        {
          "indexed": false,
          "internalType": "uint256",
          "name": "storeDate",
          "type": "uint256"
        }
      ],
      "name": "StoreFileEvent",
      "type": "event"
    },
    {
      "inputs": [
        {
          "internalType": "uint256",
          "name": "",
          "type": "uint256"
        }
      ],
      "name": "files",
      "outputs": [
        {
          "internalType": "string",
          "name": "name",
          "type": "string"
        },
        {
          "internalType": "string",
          "name": "fileHash",
          "type": "string"
        },
        {
          "internalType": "address",
          "name": "owner",
          "type": "address"
        },
        {
          "internalType": "uint256",
          "name": "storeDate",
          "type": "uint256"
        }
      ],
      "stateMutability": "view",
      "type": "function"
    },
    {
      "inputs": [],
      "name": "isOwner",
      "outputs": [
        {
          "internalType": "bool",
          "name": "",
          "type": "bool"
        }
      ],
      "stateMutability": "view",
      "type": "function"
    },
    {
      "inputs": [],
      "name": "owner",
      "outputs": [
        {
          "internalType": "address",
          "name": "",
          "type": "address"
        }
      ],
      "stateMutability": "view",
      "type": "function"
    },
    {
      "inputs": [],
      "name": "renounceOwnership",
      "outputs": [],
      "stateMutability": "nonpayable",
      "type": "function"
    },
    {
      "inputs": [
        {
          "internalType": "address",
          "name": "newOwner",
          "type": "address"
        }
      ],
      "name": "transferOwnership",
      "outputs": [],
      "stateMutability": "nonpayable",
      "type": "function"
    },
    {
      "inputs": [
        {
          "internalType": "string",
          "name": "_name",
          "type": "string"
        },
        {
          "internalType": "string",
          "name": "_fileHash",
          "type": "string"
        },
        {
          "internalType": "address",
          "name": "_owner",
          "type": "address"
        }
      ],
      "name": "Store",
      "outputs": [],
      "stateMutability": "nonpayable",
      "type": "function"
    }
  ],
  "bytecode": "0x608060405234801561001057600080fd5b50336000806101000a81548173ffffffffffffffffffffffffffffffffffffffff021916908373ffffffffffffffffffffffffffffffffffffffff16021790555060008054906101000a900473ffffffffffffffffffffffffffffffffffffffff1673ffffffffffffffffffffffffffffffffffffffff16600073ffffffffffffffffffffffffffffffffffffffff167f8be0079c531659141344cd1fd0a4f28419497f9722a3daafe3b4186f6b6457e060405160405180910390a3611101806100db6000396000f3fe608060405234801561001057600080fd5b50600436106100625760003560e01c80630fe9a1d614610067578063715018a6146100835780638da5cb5b1461008d5780638f32d59b146100ab578063f2fde38b146100c9578063f4c714b4146100e5575b600080fd5b610081600480360381019061007c9190610ab9565b610118565b005b61008b610536565b005b610095610605565b6040516100a29190610ce5565b60405180910390f35b6100b361062e565b6040516100c09190610d00565b60405180910390f35b6100e360048036038101906100de9190610a90565b610685565b005b6100ff60048036038101906100fa9190610b38565b6106a2565b60405161010f9493929190610d1b565b60405180910390f35b60008080600090505b6001805490508110156101e2578460405160200161013f9190610cb7565b60405160208183030381529060405280519060200120600360008381526020019081526020016000206040516020016101789190610cce565b6040516020818303038152906040528051906020012014156101cf57600192506002600082815260200190815260200160002060009054906101000a900473ffffffffffffffffffffffffffffffffffffffff1691505b80806101da90610fb6565b915050610121565b5060011515821515141561022b576040517f08c379a000000000000000000000000000000000000000000000000000000000815260040161022290610db3565b60405180910390fd5b8273ffffffffffffffffffffffffffffffffffffffff168173ffffffffffffffffffffffffffffffffffffffff16141561029a576040517f08c379a000000000000000000000000000000000000000000000000000000000815260040161029190610db3565b60405180910390fd5b6000429050600160405180608001604052808881526020018781526020018673ffffffffffffffffffffffffffffffffffffffff168152602001838152509080600181540180825580915050600190039060005260206000209060040201600090919091909150600082015181600001908051906020019061031d92919061095b565b50602082015181600101908051906020019061033a92919061095b565b5060408201518160020160006101000a81548173ffffffffffffffffffffffffffffffffffffffff021916908373ffffffffffffffffffffffffffffffffffffffff1602179055506060820151816003015550506000600180805490506103a19190610ec6565b9050336002600083815260200190815260200160002060006101000a81548173ffffffffffffffffffffffffffffffffffffffff021916908373ffffffffffffffffffffffffffffffffffffffff1602179055508560036000838152602001908152602001600020908051906020019061041c92919061095b565b508660046000838152602001908152602001600020908051906020019061044492919061095b565b506104986001600560003373ffffffffffffffffffffffffffffffffffffffff1673ffffffffffffffffffffffffffffffffffffffff1681526020019081526020016000205461081290919063ffffffff16565b600560003373ffffffffffffffffffffffffffffffffffffffff1673ffffffffffffffffffffffffffffffffffffffff168152602001908152602001600020819055508473ffffffffffffffffffffffffffffffffffffffff167f15fcfac5eaf6fc2bd63c0f413b1c9885f063e4e81c98237dc2b55b2067bfddc688888560405161052593929190610d6e565b60405180910390a250505050505050565b61053e61062e565b61054757600080fd5b600073ffffffffffffffffffffffffffffffffffffffff1660008054906101000a900473ffffffffffffffffffffffffffffffffffffffff1673ffffffffffffffffffffffffffffffffffffffff167f8be0079c531659141344cd1fd0a4f28419497f9722a3daafe3b4186f6b6457e060405160405180910390a360008060006101000a81548173ffffffffffffffffffffffffffffffffffffffff021916908373ffffffffffffffffffffffffffffffffffffffff160217905550565b60008060009054906101000a900473ffffffffffffffffffffffffffffffffffffffff16905090565b60008060009054906101000a900473ffffffffffffffffffffffffffffffffffffffff1673ffffffffffffffffffffffffffffffffffffffff163373ffffffffffffffffffffffffffffffffffffffff1614905090565b61068d61062e565b61069657600080fd5b61069f81610864565b50565b600181815481106106b257600080fd5b90600052602060002090600402016000915090508060000180546106d590610f84565b80601f016020809104026020016040519081016040528092919081815260200182805461070190610f84565b801561074e5780601f106107235761010080835404028352916020019161074e565b820191906000526020600020905b81548152906001019060200180831161073157829003601f168201915b50505050509080600101805461076390610f84565b80601f016020809104026020016040519081016040528092919081815260200182805461078f90610f84565b80156107dc5780601f106107b1576101008083540402835291602001916107dc565b820191906000526020600020905b8154815290600101906020018083116107bf57829003601f168201915b5050505050908060020160009054906101000a900473ffffffffffffffffffffffffffffffffffffffff16908060030154905084565b60008082846108219190610e70565b90508381101561085a577f4e487b7100000000000000000000000000000000000000000000000000000000600052600160045260246000fd5b8091505092915050565b600073ffffffffffffffffffffffffffffffffffffffff168173ffffffffffffffffffffffffffffffffffffffff16141561089e57600080fd5b8073ffffffffffffffffffffffffffffffffffffffff1660008054906101000a900473ffffffffffffffffffffffffffffffffffffffff1673ffffffffffffffffffffffffffffffffffffffff167f8be0079c531659141344cd1fd0a4f28419497f9722a3daafe3b4186f6b6457e060405160405180910390a3806000806101000a81548173ffffffffffffffffffffffffffffffffffffffff021916908373ffffffffffffffffffffffffffffffffffffffff16021790555050565b82805461096790610f84565b90600052602060002090601f01602090048101928261098957600085556109d0565b82601f106109a257805160ff19168380011785556109d0565b828001600101855582156109d0579182015b828111156109cf5782518255916020019190600101906109b4565b5b5090506109dd91906109e1565b5090565b5b808211156109fa5760008160009055506001016109e2565b5090565b6000610a11610a0c84610e04565b610dd3565b905082815260208101848484011115610a2957600080fd5b610a34848285610f42565b509392505050565b600081359050610a4b8161109d565b92915050565b600082601f830112610a6257600080fd5b8135610a728482602086016109fe565b91505092915050565b600081359050610a8a816110b4565b92915050565b600060208284031215610aa257600080fd5b6000610ab084828501610a3c565b91505092915050565b600080600060608486031215610ace57600080fd5b600084013567ffffffffffffffff811115610ae857600080fd5b610af486828701610a51565b935050602084013567ffffffffffffffff811115610b1157600080fd5b610b1d86828701610a51565b9250506040610b2e86828701610a3c565b9150509250925092565b600060208284031215610b4a57600080fd5b6000610b5884828501610a7b565b91505092915050565b610b6a81610efa565b82525050565b610b7981610f0c565b82525050565b6000610b8a82610e49565b610b948185610e54565b9350610ba4818560208601610f51565b610bad8161108c565b840191505092915050565b6000610bc382610e49565b610bcd8185610e65565b9350610bdd818560208601610f51565b80840191505092915050565b60008154610bf681610f84565b610c008186610e65565b94506001821660008114610c1b5760018114610c2c57610c5f565b60ff19831686528186019350610c5f565b610c3585610e34565b60005b83811015610c5757815481890152600182019150602081019050610c38565b838801955050505b50505092915050565b6000610c75601283610e54565b91507f46696c6520616c726561647920657869737400000000000000000000000000006000830152602082019050919050565b610cb181610f38565b82525050565b6000610cc38284610bb8565b915081905092915050565b6000610cda8284610be9565b915081905092915050565b6000602082019050610cfa6000830184610b61565b92915050565b6000602082019050610d156000830184610b70565b92915050565b60006080820190508181036000830152610d358187610b7f565b90508181036020830152610d498186610b7f565b9050610d586040830185610b61565b610d656060830184610ca8565b95945050505050565b60006060820190508181036000830152610d888186610b7f565b90508181036020830152610d9c8185610b7f565b9050610dab6040830184610ca8565b949350505050565b60006020820190508181036000830152610dcc81610c68565b9050919050565b6000604051905081810181811067ffffffffffffffff82111715610dfa57610df961105d565b5b8060405250919050565b600067ffffffffffffffff821115610e1f57610e1e61105d565b5b601f19601f8301169050602081019050919050565b60008190508160005260206000209050919050565b600081519050919050565b600082825260208201905092915050565b600081905092915050565b6000610e7b82610f38565b9150610e8683610f38565b9250827fffffffffffffffffffffffffffffffffffffffffffffffffffffffffffffffff03821115610ebb57610eba610fff565b5b828201905092915050565b6000610ed182610f38565b9150610edc83610f38565b925082821015610eef57610eee610fff565b5b828203905092915050565b6000610f0582610f18565b9050919050565b60008115159050919050565b600073ffffffffffffffffffffffffffffffffffffffff82169050919050565b6000819050919050565b82818337600083830152505050565b60005b83811015610f6f578082015181840152602081019050610f54565b83811115610f7e576000848401525b50505050565b60006002820490506001821680610f9c57607f821691505b60208210811415610fb057610faf61102e565b5b50919050565b6000610fc182610f38565b91507fffffffffffffffffffffffffffffffffffffffffffffffffffffffffffffffff821415610ff457610ff3610fff565b5b600182019050919050565b7f4e487b7100000000000000000000000000000000000000000000000000000000600052601160045260246000fd5b7f4e487b7100000000000000000000000000000000000000000000000000000000600052602260045260246000fd5b7f4e487b7100000000000000000000000000000000000000000000000000000000600052604160045260246000fd5b6000601f19601f8301169050919050565b6110a681610efa565b81146110b157600080fd5b50565b6110bd81610f38565b81146110c857600080fd5b5056fea2646970667358221220544211db3f0b46a537283eb118657d531d703d7f6c0c583fb0a019da7685d6f064736f6c63430008000033",
  "immutableReferences": {},
  "source": "// SPDX-License-Identifier: MIT\r\npragma solidity ^0.8.0;\r\n\r\nimport \"./Storage.sol\";\r\nimport \"./safemath.sol\";\r\n\r\ncontract StoreFile is Storage {\r\n  using SafeMath for uint256;\r\n\r\n  event StoreFileEvent(\r\n    string name,\r\n    string fileHash,\r\n    address indexed owner,\r\n    uint storeDate\r\n  );\r\n\r\n  function Store(string memory _name, string memory _fileHash, address _owner) public {\r\n    bool isExist = false;\r\n    address owner;\r\n\r\n    // Check if there is the same file already recorded on the blockchain\r\n    for(uint i = 0; i < files.length; i++) {\r\n      if(keccak256(abi.encodePacked(fileToHash[i])) == keccak256(abi.encodePacked(_fileHash))){\r\n        isExist = true;\r\n        owner = fileToOwner[i];\r\n      }\r\n    }\r\n\r\n    // If same file exist, then:\r\n    if(isExist == true) {\r\n      revert('File already exist');\r\n    } else {\r\n      // If file is unique then check the owner\r\n      // Owner can't store same file multiple times\r\n      if(owner == _owner) {\r\n        revert('File already exist');\r\n      } else {\r\n        // Finally if everything si clear then proceed\r\n        uint _storeDate = block.timestamp;\r\n        files.push(File(_name, _fileHash, _owner, _storeDate));\r\n        uint id = files.length - 1;\r\n        fileToOwner[id] = msg.sender;\r\n        fileToHash[id] = _fileHash;\r\n        fileToName[id] = _name;\r\n        ownerFileCount[msg.sender] = ownerFileCount[msg.sender].add(1);\r\n        emit StoreFileEvent(_name, _fileHash, _owner, _storeDate);\r\n      }\r\n    }\r\n  }\r\n}",
  "sourcePath": "C:\\Users\\dhira\\Desktop\\Docs-Universe\\contracts\\StoreFile.sol",
  "compiler": {
    "name": "solc",
    "version": "0.8.0+commit.c7dfd78e.Emscripten.clang"
  },
  "schemaVersion": "3.4.13",
  "updatedAt": "2023-05-30T06:38:17.964Z",
  "devdoc": {
    "kind": "dev",
    "methods": {
      "isOwner()": {
        "returns": {
          "_0": "true if `msg.sender` is the owner of the contract."
        }
      },
      "owner()": {
        "returns": {
          "_0": "the address of the owner."
        }
      },
      "renounceOwnership()": {
        "details": "Allows the current owner to relinquish control of the contract."
      },
      "transferOwnership(address)": {
        "details": "Allows the current owner to transfer control of the contract to a newOwner.",
        "params": {
          "newOwner": "The address to transfer ownership to."
        }
      }
    },
    "version": 1
  },
  "userdoc": {
    "kind": "user",
    "methods": {
      "renounceOwnership()": {
        "notice": "Renouncing to ownership will leave the contract without an owner. It will not be possible to call the functions with the `onlyOwner` modifier anymore."
      }
    },
    "version": 1
  }
}