{
  "contractName": "Storage",
  "abi": [
    {
      "anonymous": false,
      "inputs": [
        {
          "indexed": true,
          "internalType": "address",
          "name": "previousOwner",
          "type": "address"
        },
        {
          "indexed": true,
          "internalType": "address",
          "name": "newOwner",
          "type": "address"
        }
      ],
      "name": "OwnershipTransferred",
      "type": "event"
    },
    {
      "inputs": [
        {
          "internalType": "uint256",
          "name": "",
          "type": "uint256"
        }
      ],
      "name": "files",
      "outputs": [
        {
          "internalType": "string",
          "name": "name",
          "type": "string"
        },
        {
          "internalType": "string",
          "name": "fileHash",
          "type": "string"
        },
        {
          "internalType": "address",
          "name": "owner",
          "type": "address"
        },
        {
          "internalType": "uint256",
          "name": "storeDate",
          "type": "uint256"
        }
      ],
      "stateMutability": "view",
      "type": "function"
    },
    {
      "inputs": [],
      "name": "isOwner",
      "outputs": [
        {
          "internalType": "bool",
          "name": "",
          "type": "bool"
        }
      ],
      "stateMutability": "view",
      "type": "function"
    },
    {
      "inputs": [],
      "name": "owner",
      "outputs": [
        {
          "internalType": "address",
          "name": "",
          "type": "address"
        }
      ],
      "stateMutability": "view",
      "type": "function"
    },
    {
      "inputs": [],
      "name": "renounceOwnership",
      "outputs": [],
      "stateMutability": "nonpayable",
      "type": "function"
    },
    {
      "inputs": [
        {
          "internalType": "address",
          "name": "newOwner",
          "type": "address"
        }
      ],
      "name": "transferOwnership",
      "outputs": [],
      "stateMutability": "nonpayable",
      "type": "function"
    }
  ],
  "bytecode": "0x608060405234801561001057600080fd5b50336000806101000a81548173ffffffffffffffffffffffffffffffffffffffff021916908373ffffffffffffffffffffffffffffffffffffffff16021790555060008054906101000a900473ffffffffffffffffffffffffffffffffffffffff1673ffffffffffffffffffffffffffffffffffffffff16600073ffffffffffffffffffffffffffffffffffffffff167f8be0079c531659141344cd1fd0a4f28419497f9722a3daafe3b4186f6b6457e060405160405180910390a361079c806100db6000396000f3fe608060405234801561001057600080fd5b50600436106100575760003560e01c8063715018a61461005c5780638da5cb5b146100665780638f32d59b14610084578063f2fde38b146100a2578063f4c714b4146100be575b600080fd5b6100646100f1565b005b61006e6101c0565b60405161007b91906105a6565b60405180910390f35b61008c6101e9565b60405161009991906105c1565b60405180910390f35b6100bc60048036038101906100b791906104ee565b610240565b005b6100d860048036038101906100d39190610517565b61025d565b6040516100e894939291906105dc565b60405180910390f35b6100f96101e9565b61010257600080fd5b600073ffffffffffffffffffffffffffffffffffffffff1660008054906101000a900473ffffffffffffffffffffffffffffffffffffffff1673ffffffffffffffffffffffffffffffffffffffff167f8be0079c531659141344cd1fd0a4f28419497f9722a3daafe3b4186f6b6457e060405160405180910390a360008060006101000a81548173ffffffffffffffffffffffffffffffffffffffff021916908373ffffffffffffffffffffffffffffffffffffffff160217905550565b60008060009054906101000a900473ffffffffffffffffffffffffffffffffffffffff16905090565b60008060009054906101000a900473ffffffffffffffffffffffffffffffffffffffff1673ffffffffffffffffffffffffffffffffffffffff163373ffffffffffffffffffffffffffffffffffffffff1614905090565b6102486101e9565b61025157600080fd5b61025a816103cd565b50565b6001818154811061026d57600080fd5b9060005260206000209060040201600091509050806000018054610290906106c6565b80601f01602080910402602001604051908101604052809291908181526020018280546102bc906106c6565b80156103095780601f106102de57610100808354040283529160200191610309565b820191906000526020600020905b8154815290600101906020018083116102ec57829003601f168201915b50505050509080600101805461031e906106c6565b80601f016020809104026020016040519081016040528092919081815260200182805461034a906106c6565b80156103975780601f1061036c57610100808354040283529160200191610397565b820191906000526020600020905b81548152906001019060200180831161037a57829003601f168201915b5050505050908060020160009054906101000a900473ffffffffffffffffffffffffffffffffffffffff16908060030154905084565b600073ffffffffffffffffffffffffffffffffffffffff168173ffffffffffffffffffffffffffffffffffffffff16141561040757600080fd5b8073ffffffffffffffffffffffffffffffffffffffff1660008054906101000a900473ffffffffffffffffffffffffffffffffffffffff1673ffffffffffffffffffffffffffffffffffffffff167f8be0079c531659141344cd1fd0a4f28419497f9722a3daafe3b4186f6b6457e060405160405180910390a3806000806101000a81548173ffffffffffffffffffffffffffffffffffffffff021916908373ffffffffffffffffffffffffffffffffffffffff16021790555050565b6000813590506104d381610738565b92915050565b6000813590506104e88161074f565b92915050565b60006020828403121561050057600080fd5b600061050e848285016104c4565b91505092915050565b60006020828403121561052957600080fd5b6000610537848285016104d9565b91505092915050565b6105498161064b565b82525050565b6105588161065d565b82525050565b60006105698261062f565b610573818561063a565b9350610583818560208601610693565b61058c81610727565b840191505092915050565b6105a081610689565b82525050565b60006020820190506105bb6000830184610540565b92915050565b60006020820190506105d6600083018461054f565b92915050565b600060808201905081810360008301526105f6818761055e565b9050818103602083015261060a818661055e565b90506106196040830185610540565b6106266060830184610597565b95945050505050565b600081519050919050565b600082825260208201905092915050565b600061065682610669565b9050919050565b60008115159050919050565b600073ffffffffffffffffffffffffffffffffffffffff82169050919050565b6000819050919050565b60005b838110156106b1578082015181840152602081019050610696565b838111156106c0576000848401525b50505050565b600060028204905060018216806106de57607f821691505b602082108114156106f2576106f16106f8565b5b50919050565b7f4e487b7100000000000000000000000000000000000000000000000000000000600052602260045260246000fd5b6000601f19601f8301169050919050565b6107418161064b565b811461074c57600080fd5b50565b61075881610689565b811461076357600080fd5b5056fea264697066735822122062a8c5a669b49deaed53823dd7f47d4f9726efd8355fcd146c3536c2743b3e7564736f6c63430008000033",
  "immutableReferences": {},
  "source": "// SPDX-License-Identifier: MIT\r\npragma solidity ^0.8.0;\r\n\r\n/** \r\n * @title Planet of Docs\r\n * @author Bagas Fadillah Islamay\r\n * @notice Manage files with IPFS data storing\r\n * @dev This contract might be buggy\r\n * @custom:experimental This is an experimental contract, Tugas Akhir!\r\n */\r\n\r\nimport \"./ownable.sol\";\r\nimport \"./safemath.sol\";\r\n\r\ncontract Storage is Ownable{\r\n  /**\r\n   * @dev Base contract\r\n   */\r\n  \r\n  struct File {\r\n    string name;\r\n    string fileHash;\r\n    address owner;\r\n    uint256 storeDate;\r\n  }\r\n\r\n  // Array of files struct\r\n  File[] public files;\r\n\r\n  // Map file to owner\r\n  mapping (uint => address) internal fileToOwner;\r\n  // Map file to hash\r\n  mapping (uint => string) internal fileToHash;\r\n  // Map file to name\r\n  mapping (uint => string) internal fileToName;\r\n  // The number of files owned by the owner\r\n  mapping (address => uint) internal ownerFileCount;\r\n \r\n\r\n  modifier ownerOfFile(uint _fileId) {\r\n    /**\r\n     * @dev Modifier to check that only owner that can alter the file's info\r\n     * Act as an anti-IDOR mechanism\r\n     * Reference: Refactoring Common Logic from CZ-L4-C6\r\n     */\r\n    require(msg.sender == fileToOwner[_fileId]);\r\n    _;\r\n  }\r\n}",
  "sourcePath": "C:\\Users\\dhira\\Desktop\\Docs-Universe\\contracts\\Storage.sol",
  "compiler": {
    "name": "solc",
    "version": "0.8.0+commit.c7dfd78e.Emscripten.clang"
  },
  "schemaVersion": "3.4.13",
  "updatedAt": "2023-05-30T06:38:17.962Z",
  "devdoc": {
    "kind": "dev",
    "methods": {
      "isOwner()": {
        "returns": {
          "_0": "true if `msg.sender` is the owner of the contract."
        }
      },
      "owner()": {
        "returns": {
          "_0": "the address of the owner."
        }
      },
      "renounceOwnership()": {
        "details": "Allows the current owner to relinquish control of the contract."
      },
      "transferOwnership(address)": {
        "details": "Allows the current owner to transfer control of the contract to a newOwner.",
        "params": {
          "newOwner": "The address to transfer ownership to."
        }
      }
    },
    "version": 1
  },
  "userdoc": {
    "kind": "user",
    "methods": {
      "renounceOwnership()": {
        "notice": "Renouncing to ownership will leave the contract without an owner. It will not be possible to call the functions with the `onlyOwner` modifier anymore."
      }
    },
    "version": 1
  }
}